:020000040800F2
:10000000000002208D1200087D10000883100008F7
:10001000891000088F1000089510000800000000EB
:100020000000000000000000000000009B1000081D
:10003000A910000800000000B7100008C510000853
:10004000DD120008DD120008DD120008DD120008D4
:10005000DD120008DD120008DD120008DD120008C4
:10006000DD120008DD120008DD120008DD120008B4
:10007000DD120008DD120008DD120008DD120008A4
:10008000DD120008DD120008DD120008DD12000894
:10009000D1100008DD120008DD120008DD12000892
:1000A000DD120008DD120008DD120008DD12000874
:1000B000E5100008F9100008DD120008DD12000844
:1000C000DD120008DD120008DD120008DD12000854
:1000D000DD120008DD120008DD120008DD12000844
:1000E000DD120008DD120008DD120008DD12000834
:1000F000DD120008DD120008DD120008DD12000824
:10010000DD120008DD120008DD120008DD12000813
:10011000DD120008DD120008DD120008DD12000803
:10012000DD120008DD120008DD120008DD120008F3
:10013000DD1200080000000000000000DD120008D1
:10014000DD1200080D110008DD120008DD120008A4
:10015000DD120008DD120008DD120008DD120008C3
:10016000DD120008DD120008DD120008DD120008B3
:10017000DD120008DD120008000000000000000091
:08018000DD120008DD12000889
:1001900010B5054C237833B9044B13B10448AFF3C1
:1001A00000800123237010BD7000002000000000BB
:1001B0003C4F000808B5034B1BB103490348AFF39C
:1001C000008008BD00000000740000203C4F0008C3
:1001D00001F0FF01102A2BDB10F0070F08D010F8F8
:1001E000013B013A8B422DD010F0070F42B3F6D1FC
:1001F000F0B441EA012141EA014122F007047FF015
:1002000000070023F0E80256083C85EA010586EA6B
:10021000010685FA47F5A3FA87F586FA47F6A5FAA7
:1002200087F68EB9EED1F0BC01F0FF0102F00702B3
:1002300032B110F8013B013A83EA010313B1F8D15E
:100240000020704701387047002D06BF354603383F
:10025000073815F0010F07D1013015F4807F02BF78
:10026000013015F4C03F0130F0BC0138704700BFC9
:1002700053B94AB9002908BF00281CBF4FF0FF310D
:100280004FF0FF3000F074B9ADF1080C6DE904CE09
:1002900000F006F8DDF804E0DDE9022304B0704761
:1002A0002DE9F047089D04468E46002B4DD18A4229
:1002B000944669D9B2FA82F252B101FA02F3C2F15C
:1002C000200120FA01F10CFA02FC41EA030E9440ED
:1002D0004FEA1C48210CBEFBF8F61FFA8CF708FB0E
:1002E00016E341EA034306FB07F199420AD91CEBE6
:1002F000030306F1FF3080F01F81994240F21C8118
:10030000023E63445B1AA4B2B3FBF8F008FB10335F
:1003100044EA034400FB07F7A7420AD91CEB040494
:1003200000F1FF3380F00A81A74240F20781644464
:10033000023840EA0640E41B00261DB1D4400023E9
:10034000C5E900433146BDE8F0878B4209D9002D4D
:1003500000F0EF800026C5E9000130463146BDE8D7
:10036000F087B3FA83F6002E4AD18B4202D3824241
:1003700000F2F980841A61EB030301209E46002DF0
:10038000E0D0C5E9004EDDE702B9FFDEB2FA82F245
:10039000002A40F09280A1EB0C014FEA1C471FFAA3
:1003A0008CFE0126200CB1FBF7F307FB131140EA8A
:1003B00001410EFB03F0884208D91CEB010103F157
:1003C000FF3802D2884200F2CB804346091AA4B219
:1003D000B1FBF7F007FB101144EA01440EFB00FEED
:1003E000A64508D91CEB040400F1FF3102D2A64552
:1003F00000F2BB800846A4EB0E0440EA03409CE7F1
:10040000C6F12007B34022FA07FC4CEA030C20FA9D
:1004100007F401FA06F31C43F9404FEA1C4900FABD
:1004200006F3B1FBF9F8200C1FFA8CFE09FB18113A
:1004300040EA014108FB0EF0884202FA06F20BD9AD
:100440001CEB010108F1FF3A80F08880884240F2FD
:100450008580A8F102086144091AA4B2B1FBF9F041
:1004600009FB101144EA014100FB0EFE8E4508D93C
:100470001CEB010100F1FF346CD28E456AD90238C1
:10048000614440EA0840A0FB0294A1EB0E01A142A6
:10049000C846A64656D353D05DB1B3EB080261EB14
:1004A0000E0101FA07F722FA06F3F1401F43C5E9EE
:1004B000007100263146BDE8F087C2F12003D84024
:1004C0000CFA02FC21FA03F3914001434FEA1C4766
:1004D0001FFA8CFEB3FBF7F007FB10360B0C43EA58
:1004E000064300FB0EF69E4204FA02F408D91CEB08
:1004F000030300F1FF382FD29E422DD90238634406
:100500009B1B89B2B3FBF7F607FB163341EA0341A5
:1005100006FB0EF38B4208D91CEB010106F1FF38F4
:1005200016D28B4214D9023E6144C91A46EA0046EB
:1005300038E72E46284605E70646E3E61846F8E67D
:100540004B45A9D2B9EB020864EB0C0E0138A3E7C6
:100550004646EAE7204694E74046D1E7D0467BE7A7
:10056000023B614432E7304609E76444023842E71F
:10057000704700BFF0B589B006AF78600122022154
:100580001B4802F025F81B4B1B4A0021786801F03C
:1005900014FA194B1B69082B26D1164B1B781D46E4
:1005A000144B5B781E46134B9B789C46114BDB78B3
:1005B0001A46104B1B7919460E4B5B7918460D4BAA
:1005C0009B791C460B4BDB790493039402900191B9
:1005D0000092634632462946084803F021FD002276
:1005E0000221034801F0F4FF00BF0C37BD46F0BD07
:1005F0000004024004020020E0010020544F0008E3
:10060000F0B589B006AF7860012204211B4801F0E3
:10061000DFFF1B4B1B4A0121786801F0CEF9194B13
:100620001B69082B26D1164B1B781D46144B5B7893
:100630001E46134B9B789C46114BDB781A46104B99
:100640001B7919460E4B5B7918460D4B9B791C465E
:100650000B4BDB7904930394029001910092634663
:1006600032462946084803F0DBFC002204210348F7
:1006700001F0AEFF00BF0C37BD46F0BD00040240E4
:100680005402002030020020904F000880B483B054
:1006900000AF78607B681A680A4B1B689A4202D1E7
:1006A000094B01221A607B681A68084B1B689A4242
:1006B00002D1074B01221A6000BF0C37BD465DF81E
:1006C000047B7047F4000020100200203C01002051
:1006D0001402002080B483B000AF78603960324BE0
:1006E00000221A60314B00221A60314B00221A603E
:1006F000304B00221A60304B00221A602F4B002230
:100700001A602A4B00221A6040E0284B1B68002B1D
:1007100003D1294B00221A600AE0244B1B683A6877
:10072000D31A1A467B6813441B781A46224B1A6068
:100730001D4B1A68204B1B6853401B4A13601C4B0F
:1007400008221A6019E0184B1B681C4A1360164BEC
:100750001B685B00144A1360184B1B6803F480731A
:10076000002B05D0104B1B6883F01D030E4A13604D
:100770000F4B1B68013B0E4A13600D4B1B68002B8F
:10078000E1DC0A4B1B680133084A1360074B1B6806
:100790003A689A42B9DA044B1B6818460C37BD46D2
:1007A0005DF8047B704700BF900000208C000020A3
:1007B000A000002094000020980000209C00002051
:1007C00080B500AF00F08CFD00F0B0F800F08AFAC0
:1007D00000F016F900F06AF900F05AFA00F0BCF9DE
:1007E00000F008FA454800F0C9FF454800F0C6FF90
:1007F000444802F0EFFB444802F0ECFB02213F4882
:1008000001F0EDF910213E4801F0E9F93F4B0822D3
:100810001A613E4B00229A603C4B0022DA603B4B4F
:1008200012221A603A4B55221A70394B55225A70CF
:10083000374B55229A70364B5522DA70344B55227D
:100840001A71334B55225A71314B00229A71304B39
:100850000022DA712F4B08221A612E4B00229A6077
:100860002C4B0022DA602B4BA2221A602A4BAA22C0
:100870001A70294BAA225A70274BAA229A70264B2B
:10088000AA22DA70244BAA221A71234BAA225A7187
:10089000214BAA229A71204B0022DA711F4B1B6850
:1008A000012B0ED11C4BDB790133DAB21A4BDA7112
:1008B0001B4B194A1749124800F0A4FF174B00229E
:1008C0001A60184B1B68012BE8D1134BDB790133FD
:1008D000DAB20F4B9A7107210D48FFF7FBFE034672
:1008E000DAB20B4BDA71104B094A0849034800F0A1
:1008F00089FF0C4B00221A60D0E700BFA400002043
:10090000CC000020F40000203C010020C8010020A1
:10091000FC010020180200204C02002014020020DC
:100920005C020020100200200C02002080B594B070
:1009300000AF07F1200330220021184603F068FBC6
:1009400007F10C0300221A605A609A60DA601A619B
:100950000023BB60284B1B6C274A43F08053136471
:10096000254B1B6C03F08053BB60BB6800237B608E
:10097000224B1B68214A43F4804313601F4B1B68C2
:1009800003F480437B607B6801233B624FF4803338
:100990007B620223BB634FF48003FB6304233B644D
:1009A000A8237B640223BB640423FB6407F12003B8
:1009B000184601F027FE0346002B01D000F0F4F9A1
:1009C0000F23FB6002233B6100237B614FF4A053A4
:1009D000BB614FF48053FB6107F10C0305211846FE
:1009E00002F088F80346002B01D000F0DDF900BFCB
:1009F0005037BD4680BD00BF003802400070004047
:100A000080B58AB000AF274B274A1A60254B0422D5
:100A10005A60244B00229A60224B4FF08072DA60B9
:100A2000204B4FF470221A611E4B4FF440125A6152
:100A30001C4B00221A761B4B01225A76194B0122BD
:100A40009A76184B0022DA76164B00221A77154B4D
:100A500000225A77134800F0B5FC0346002B01D062
:100A600000F0A2F901233B6212237B6100233B616A
:100A70004FF4A2533B6000237B604FF4A253BB6052
:100A80000023FB600023BB610123FB6114237B6215
:100A90003B461946034800F091FD00BF2837BD468C
:100AA00080BD00BFA40000200064004080B58AB073
:100AB00000AF274B274A1A60254B04225A60244B6B
:100AC00000229A60224B4FF08072DA60204B4FF484
:100AD00070221A611E4B4FF440125A611C4B0022C7
:100AE0001A761B4B01225A76194B01229A76184B23
:100AF0000022DA76164B00221A77154B00225A771D
:100B0000134800F05FFC0346002B01D000F04CF9C5
:100B100001233B620A237B6101233B614FF4107385
:100B20003B6000237B604FF41073BB600023FB60CD
:100B30000023BB610123FB6100237B623B46194616
:100B4000034800F03BFD00BF2837BD4680BD00BF15
:100B5000CC0000200068004080B586B000AF07F1EF
:100B6000080300221A605A609A60DA603B4600224D
:100B70001A605A601E4B4FF080421A601C4B42F2C2
:100B8000CF025A601A4B00229A60194B40F2CF7282
:100B9000DA60174B00221A61154B00229A61144843
:100BA00002F0C8F90346002B01D000F0FDF84FF425
:100BB0008053BB6007F1080319460D4802F082FB21
:100BC0000346002B01D000F0EFF800233B60002328
:100BD0007B603B461946064802F09EFD0346002B0B
:100BE00001D000F0E1F800BF1837BD4680BD00BF5E
:100BF000F400002080B586B000AF07F108030022A2
:100C00001A605A609A60DA603B4600221A605A60A5
:100C10001D4B1E4A1A601C4B42F2CF025A601A4BFF
:100C200000229A60184B41F28732DA60164B00229C
:100C30001A61154B00229A61134802F07BF90346B2
:100C4000002B01D000F0B0F84FF48053BB6007F1E7
:100C5000080319460C4802F035FB0346002B01D06F
:100C600000F0A2F800233B6000237B603B4619465E
:100C7000054802F051FD0346002B01D000F094F826
:100C800000BF1837BD4680BD3C0100200004004075
:100C900080B500AF114B124A1A60104B4FF4E1328D
:100CA0005A600E4B00229A600C4B0022DA600B4B0C
:100CB00000221A61094B0C225A61084B00229A61EA
:100CC000064B0022DA61054802F0B6FD0346002B10
:100CD00001D000F069F800BF80BD00BF8401002092
:100CE0000010014080B588B000AF07F10C0300226E
:100CF0001A605A609A60DA601A610023BB601F4B69
:100D00001B6B1E4A43F0800313631C4B1B6B03F0E9
:100D10008003BB60BB6800237B60184B1B6B174ACA
:100D200043F002031363154B1B6B03F002037B605C
:100D30007B6800233B60114B1B6B104A43F001039F
:100D400013630E4B1B6B03F001033B603B680022F7
:100D50000F210B4801F03CFC0F23FB6001233B619A
:100D600000237B610023BB6107F10C031946044893
:100D700001F092FA00BF2037BD4680BD0038024026
:100D80000004024080B582B000AF7860391DC823EE
:100D90000122044802F09DFD7B6818460837BD46D5
:100DA00080BD00BF8401002080B400AF72B600BFD8
:100DB000FEE7000080B483B000AF00237B60104BDF
:100DC0005B6C0F4A43F4804353640D4B5B6C03F43C
:100DD00080437B607B6800233B60094B1B6C084AA7
:100DE00043F080531364064B1B6C03F080533B604D
:100DF0003B6800BF0C37BD465DF8047B704700BF01
:100E00000038024080B58CB000AF786007F11C0359
:100E100000221A605A609A60DA601A617B681B6867
:100E20004A4A93423ED14A4B1B680133484A1360F9
:100E3000474B1B68012B0DD10023BB61454B1B6C3D
:100E4000444A43F000731364424B1B6C03F000737D
:100E5000BB61BB6900237B613E4B1B6B3D4A43F08A
:100E6000010313633B4B1B6B03F001037B617B6945
:100E70004FF4C053FB6102233B6200237B620323D8
:100E8000BB620923FB6207F11C031946324801F0DB
:100E900003FA00220021142001F0C7F9142001F008
:100EA000E0F94FE07B681B682C4A93424AD100234B
:100EB0003B61284B1B6C274A43F080631364254B2E
:100EC0001B6C03F080633B613B69214B1B68013362
:100ED0001F4A13601E4B1B68012B0DD10023FB60C2
:100EE0001C4B1B6C1B4A43F000731364194B1B6CA7
:100EF00003F00073FB60FB680023BB60154B1B6BAA
:100F0000144A43F002031363124B1B6B03F00203FA
:100F1000BB60BB686023FB6102233B6200237B62F2
:100F20000323BB620923FB6207F11C0319460C482B
:100F300001F0B2F900220021412001F076F94120B0
:100F400001F08FF900BF3037BD4680BD006400401E
:100F500060020020003802400000024000680040AB
:100F60000004024080B584B000AF78607B681B68E5
:100F7000B3F1804F16D10023FB601A4B1B6C194A4A
:100F800043F001031364174B1B6C03F00103FB6078
:100F9000FB68002200211C2001F047F91C2001F011
:100FA00060F91AE07B681B680F4A934215D1002351
:100FB000BB600C4B1B6C0B4A43F002031364094BE0
:100FC0001B6C03F00203BB60BB68002200211D20E4
:100FD00001F02BF91D2001F044F900BF1037BD4688
:100FE00080BD00BF003802400004004080B58AB0D8
:100FF00000AF786007F1140300221A605A609A600B
:10100000DA601A617B681B68194A93422CD100236D
:101010003B61184B5B6C174A43F010035364154B4C
:101020005B6C03F010033B613B690023FB60114BD9
:101030001B6B104A43F0010313630E4B1B6B03F051
:101040000103FB60FB684FF4C0637B610223BB615B
:101050000023FB6103233B6207237B6207F1140338
:101060001946054801F018F900BF2837BD4680BD74
:1010700000100140003802400000024080B400AF80
:10108000FEE780B400AFFEE780B400AFFEE780B4B7
:1010900000AFFEE780B400AFFEE780B400AF00BF52
:1010A000BD465DF8047B704780B400AF00BFBD460D
:1010B0005DF8047B704780B400AF00BFBD465DF8AB
:1010C000047B704780B500AF00F05CF900BF80BDC5
:1010D00080B500AF024800F0A8FD00BF80BD00BF92
:1010E000A400002080B500AF024801F0E3FF00BF7C
:1010F00080BD00BFF400002080B500AF024801F0C1
:10110000D9FF00BF80BD00BF3C01002080B500AF0B
:10111000024800F08AFD00BF80BD00BFCC00002067
:1011200080B586B000AFF860B9607A6000237B615B
:101130000AE0AFF300800146BB685A1CBA60CAB22D
:101140001A707B6901337B617A697B689A42F0DBB4
:101150007B6818461837BD4680BD80B586B000AFA5
:10116000F860B9607A6000237B6109E0BB685A1CB3
:10117000BA601B781846FFF705FE7B6901337B6177
:101180007A697B689A42F1DB7B6818461837BD465E
:1011900080BD80B483B000AF78604FF0FF33184655
:1011A0000C37BD465DF8047B704780B483B000AF58
:1011B000786039603B684FF400525A60002318464B
:1011C0000C37BD465DF8047B704780B483B000AF38
:1011D0007860012318460C37BD465DF8047B7047E4
:1011E00080B485B000AFF860B9607A60002318461B
:1011F0001437BD465DF8047B7047000080B586B0AB
:1012000000AF7860144A154BD31A7B617B693B6150
:10121000134B1B68002B02D1114B124A1A60104B62
:101220001A687B6813443A699A4207D202F0C6FEF4
:1012300003460C221A604FF0FF3309E0084B1B688D
:10124000FB60074B1A687B681344054A1360FB6810
:1012500018461837BD4680BD00000220000400007B
:10126000640200208002002080B400AF064BD3F857
:101270008830054A43F47003C2F8883000BFBD4689
:101280005DF8047B704700BF00ED00E0DFF834D06C
:101290000D480E490E4A002302E0D458C4500433CE
:1012A000C4188C42F9D30B4A0B4C002301E01360A5
:1012B0000432A242FBD3FFF7D7FF02F085FEFFF70F
:1012C0007FFA70470000022000000020700000201C
:1012D0008C500008700000207C020020FEE7000017
:1012E00080B500AF0E4B1B680D4A43F400731360CA
:1012F0000B4B1B680A4A43F480631360084B1B685E
:10130000074A43F480731360032000F083FF0F202B
:1013100000F008F8FFF74EFD0023184680BD00BF1F
:10132000003C024080B582B000AF7860124B1A6872
:10133000124B1B7819464FF47A73B3FBF1F3B2FBEF
:10134000F3F3184600F09BFF0346002B01D0012366
:101350000EE07B680F2B0AD8002279684FF0FF302F
:1013600000F063FF064A7B681360002300E001235E
:1013700018460837BD4680BD000000200800002048
:101380000400002080B400AF064B1B781A46064BC1
:101390001B681344044A136000BFBD465DF8047B1C
:1013A000704700BF080000206802002080B400AF32
:1013B000034B1B681846BD465DF8047B704700BFB1
:1013C0006802002080B584B000AF78607B68002B95
:1013D00001D10123EDE07B6893F82030DBB2002BD4
:1013E00002D17868FFF70EFD7B681B681A687B687E
:1013F0001B6842F001021A60FFF7D8FFF86012E0A4
:10140000FFF7D4FF0246FB68D31A0A2B0BD97B687F
:101410005B6A43F400327B685A627B68052283F87A
:1014200020200123C5E07B681B685B6803F0010393
:10143000002BE5D07B681B681A687B681B6822F06C
:1014400002021A60FFF7B2FFF86012E0FFF7AEFF8A
:101450000246FB68D31A0A2B0BD97B685B6A43F4FC
:1014600000327B685A627B68052283F820200123C2
:101470009FE07B681B685B6803F00203002BE5D1EB
:101480007B681B7E012B08D17B681B681A687B6810
:101490001B6842F080021A6007E07B681B681A68CC
:1014A0007B681B6822F080021A607B685B7E012BE0
:1014B00008D17B681B681A687B681B6842F0400291
:1014C0001A6007E07B681B681A687B681B6822F05B
:1014D00040021A607B689B7E012B08D17B681B68E9
:1014E0001A687B681B6842F020021A6007E07B687C
:1014F0001B681A687B681B6822F020021A607B68F0
:10150000DB7E012B08D17B681B681A687B681B682F
:1015100022F010021A6007E07B681B681A687B687B
:101520001B6842F010021A607B681B7F012B08D1F8
:101530007B681B681A687B681B6842F008021A60A7
:1015400007E07B681B681A687B681B6822F008024A
:101550001A607B685B7F012B08D17B681B681A6867
:101560007B681B6842F004021A6007E07B681B6816
:101570001A687B681B6822F004021A607B689A680C
:101580007B68DB681A437B681B691A437B685B696D
:1015900042EA03017B685B685A1E7B681B680A434A
:1015A000DA617B6800225A627B68012283F820207E
:1015B000002318461037BD4680BD000080B487B0B8
:1015C00000AF786039607B681B687B617B6893F84B
:1015D0002030FB74FB7C012B03D0FB7C022B40F002
:1015E000BE80654B7B617B69D3F8003243F001021A
:1015F0007B69C3F800227B69D3F8003223F47C5264
:101600007B69C3F800227B69D3F800223B685B6AE0
:101610001B021A437B69C3F800223B685B6903F035
:101620001F03012202FA03F3FB607B69D3F81C223B
:10163000FB68DB431A407B69C3F81C223B68DB690B
:10164000002B23D17B69D3F80C22FB68DB431A40C3
:101650007B69C3F80C223B68DB6819043B685B6854
:101660009BB23A68526919437B69483243F8321099
:101670003B689B6819043B681B689AB23B685B69CE
:101680000A4379694833DB000B445A603B68DB69E5
:10169000012B22D17B69D3F80C22FB681A437B69AA
:1016A000C3F80C223B681B6819043B685B689BB25B
:1016B0003A68526919437B69483243F832103B68F3
:1016C0009B6819043B68DB689AB23B685B690A4314
:1016D00079694833DB000B445A603B689B69002BF7
:1016E00009D17B69D3F80422FB68DB431A407B698C
:1016F000C3F8042207E07B69D3F80422FB681A438D
:101700007B69C3F804223B681B69002B09D17B6904
:10171000D3F81422FB68DB431A407B69C3F8142218
:1017200007E07B69D3F81422FB681A437B69C3F88E
:1017300014223B681B6A012B07D17B69D3F81C225A
:10174000FB681A437B69C3F81C227B69D3F800321B
:1017500023F001027B69C3F80022002306E07B68C6
:101760005B6A43F480227B685A62012318461C3767
:10177000BD465DF8047B70470064004080B584B0CE
:1017800000AF78607B6893F82030DBB2012B2ED15C
:101790007B68022283F820207B681B681A687B68BC
:1017A0001B6822F001021A60FFF700FEF86012E0E9
:1017B000FFF7FCFD0246FB68D31A0A2B0BD97B68A6
:1017C0005B6A43F400327B685A627B68052283F8C7
:1017D0002020012312E07B681B685B6803F0010393
:1017E000002BE5D17B6800225A62002306E07B686B
:1017F0005B6A43F400227B685A6201231846103763
:10180000BD4680BD80B489B000AFF860B9607A6031
:101810003B60FB6893F82030FB77FB681B689B6894
:10182000BB61FB7F012B03D0FB7F022B40F0B88014
:10183000BB6903F08063002B0AD1BB6903F000632E
:10184000002B05D1BB6903F08053002B00F0A08072
:10185000BB691B0E03F003037B617B69022B07D975
:10186000FB685B6A43F40002FB685A6201239EE056
:1018700001227B699A403B681A60BB689B68002B19
:101880000DD1BB681B685A05BB68DB68F96809683D
:101890001A437B6918331B010B441A600FE0BB68C5
:1018A0005B68DA00BB689B681A43BB68DB68F96851
:1018B00009681A437B6918331B010B441A60FB68E3
:1018C0001968BB681A697B6918331B010B44043320
:1018D0001A60BB681B7D012B11D1FB681A687B69FC
:1018E00018331B01134404331B68FA68116843F46E
:1018F00080727B6918331B010B4404331A607B68C8
:1019000007331B781A067B6806331B781B041A43BF
:101910007B6805331B781B0213437A680432127804
:101920001046FA68116843EA00027B691B010B4408
:1019300003F5C6731A607B6803331B781A067B684D
:1019400002331B781B041A437B6801331B781B028C
:1019500013437A6812781046FA68116843EA000265
:101960007B691B010B4403F5C4731A60FB681A689A
:101970007B6918331B0113441B68FA68116843F034
:1019800001027B6918331B010B441A6000230EE02F
:10199000FB685B6A43F40012FB685A62012306E0AD
:1019A000FB685B6A43F48022FB685A620123184695
:1019B0002437BD465DF8047B704780B487B000AF24
:1019C000F860B9607A603B60FB6893F82030FB7583
:1019D000FB7D012B03D0FB7D022B40F0F380BB6825
:1019E000002B0ED1FB681B68DB6803F00303002BA0
:1019F00016D1FB685B6A43F40012FB685A6201234C
:101A0000E7E0FB681B681B6903F00303002B07D1A9
:101A1000FB685B6A43F40012FB685A620123D8E05A
:101A2000FB681A68BB681B331B0113441B6803F077
:101A300004027B689A607B689B68002B0CD1FB6872
:101A40001A68BB681B331B0113441B685B0DC3F38F
:101A50000A027B681A600BE0FB681A68BB681B33DC
:101A60001B0113441B68DB0823F060427B685A604B
:101A7000FB681A68BB681B331B0113441B6803F027
:101A800002027B68DA60FB681A68BB681B331B01C3
:101A9000134404331B6803F00F027B681A61FB6870
:101AA0001A68BB681B331B01134404331B681B0AF1
:101AB000DAB27B689A61FB681A68BB681B331B014A
:101AC000134404331B681B0C9AB27B685A61FB6891
:101AD0001A68BB681B01134403F5DC731B68DAB298
:101AE0003B681A70FB681A68BB681B01134403F556
:101AF000DC731B681A0A3B680133D2B21A70FB68A8
:101B00001A68BB681B01134403F5DC731B681A0CCD
:101B10003B680233D2B21A70FB681A68BB681B01BB
:101B2000134403F5DC731B681A0E3B680333D2B20F
:101B30001A70FB681A68BB681B01134403F5DE7357
:101B40001A683B680433D2B21A70FB681A68BB6823
:101B50001B01134403F5DE731B681A0A3B68053347
:101B6000D2B21A70FB681A68BB681B01134403F5F4
:101B7000DE731B681A0C3B680633D2B21A70FB681E
:101B80001A68BB681B01134403F5DE731B681A0E49
:101B90003B680733D2B21A70BB68002B08D1FB68D0
:101BA0001B68DA68FB681B6842F02002DA6007E015
:101BB000FB681B681A69FB681B6842F020021A6107
:101BC000002306E0FB685B6A43F48022FB685A62EC
:101BD000012318461C37BD465DF8047B704780B46E
:101BE00085B000AF786039607B6893F82030FB7374
:101BF000FB7B012B02D0FB7B022B09D17B681B688E
:101C000059697B681B683A680A435A61002306E0F9
:101C10007B685B6A43F480227B685A620123184622
:101C20001437BD465DF8047B704780B58AB000AFBD
:101C3000786000237B627B681B685B693B627B6822
:101C40001B685B68FB617B681B689B68BB617B688A
:101C50001B68DB687B617B681B681B693B617B6879
:101C60001B689B69FB603B6A03F00103002B7CD07F
:101C7000BB6903F00103002B23D07B681B680122A2
:101C80009A60BB6903F00203002B03D0786800F070
:101C900083F916E0BB6903F00403002B04D07B6AD0
:101CA00043F400637B620CE0BB6903F00803002B84
:101CB00004D07B6A43F480537B6202E0786800F0D2
:101CC00089F9BB6903F48073002B24D07B681B68FF
:101CD0004FF480729A60BB6903F40073002B03D049
:101CE000786800F063F916E0BB6903F48063002BA9
:101CF00004D07B6A43F400537B620CE0BB6903F4BD
:101D00000063002B04D07B6A43F480437B6202E0D3
:101D1000786800F069F9BB6903F48033002B24D0A4
:101D20007B681B684FF480329A60BB6903F4003310
:101D3000002B03D0786800F043F916E0BB6903F488
:101D40008023002B04D07B6A43F400437B620CE0C9
:101D5000BB6903F40023002B04D07B6A43F4803377
:101D60007B6202E0786800F049F93B6A03F00803FF
:101D7000002B0CD07B6903F01003002B07D07B6A8B
:101D800043F400737B627B681B681022DA603B6A55
:101D900003F00403002B0BD07B6903F00803002B36
:101DA00006D07B681B680822DA60786800F030F99A
:101DB0003B6A03F00203002B09D07B681B68DB68D9
:101DC00003F00303002B02D07868FEF7D3FB3B6AD5
:101DD00003F04003002B0CD03B6903F01003002BF1
:101DE00007D07B6A43F480637B627B681B681022A8
:101DF0001A613B6A03F02003002B0BD03B6903F010
:101E00000803002B06D07B681B6808221A617868DB
:101E100000F008F93B6A03F01003002B09D07B683F
:101E20001B681B6903F00303002B02D07868FEF7E0
:101E3000E7FB3B6A03F40033002B0BD0FB6903F094
:101E40001003002B06D07B681B6810225A6078684C
:101E500000F0F2F83B6A03F48033002B0BD0FB69EF
:101E600003F00803002B06D07B681B6808225A6029
:101E7000786800F0EBF83B6A03F40043002B7BD05A
:101E8000FB6903F00403002B72D03B6A03F48073F8
:101E9000002B08D0FB6803F00103002B03D07B6A02
:101EA00043F001037B623B6A03F40073002B08D00C
:101EB000FB6803F00203002B03D07B6A43F00203AC
:101EC0007B623B6A03F48063002B08D0FB6803F05D
:101ED0000403002B03D07B6A43F004037B623B6A5C
:101EE00003F40063002B43D0FB6803F07003002B66
:101EF0003ED0FB6803F07003602B2BD0602B2ED8F4
:101F0000502B22D0502B2AD8402B19D0402B26D82A
:101F1000302B10D0302B22D8102B02D0202B05D004
:101F20001DE07B6A43F008037B6219E07B6A43F0A3
:101F300010037B6214E07B6A43F020037B620FE0B6
:101F40007B6A43F040037B620AE07B6A43F08003D4
:101F50007B6205E07B6A43F480737B6200E000BF34
:101F60007B681B689A697B681B6822F070029A6123
:101F70007B681B6804225A607B6A002B08D07B6850
:101F80005A6A7B6A1A437B685A62786800F068F87C
:101F900000BF2837BD4680BD80B483B000AF7860F5
:101FA00000BF0C37BD465DF8047B704780B483B03A
:101FB00000AF786000BF0C37BD465DF8047B70470A
:101FC00080B483B000AF786000BF0C37BD465DF8C9
:101FD000047B704780B483B000AF786000BF0C37DB
:101FE000BD465DF8047B704780B483B000AF786075
:101FF00000BF0C37BD465DF8047B704780B483B0EA
:1020000000AF786000BF0C37BD465DF8047B7047B9
:1020100080B483B000AF786000BF0C37BD465DF878
:10202000047B704780B483B000AF786000BF0C378A
:10203000BD465DF8047B704780B483B000AF786024
:1020400000BF0C37BD465DF8047B704780B483B099
:1020500000AF786000BF0C37BD465DF8047B704769
:1020600080B483B000AF786000BF0C37BD465DF828
:10207000047B704780B485B000AF78607B6803F064
:102080000703FB600C4BDB68BB60BA684FF6FF03CD
:102090001340BB60FB681A02BB68134343F0BF6385
:1020A00043F40033BB60044ABB68D36000BF1437FD
:1020B000BD465DF8047B704700ED00E080B400AFE2
:1020C000044BDB681B0A03F007031846BD465DF8A6
:1020D000047B704700ED00E080B483B000AF03469E
:1020E000FB7197F90730002B0BDBFB7903F01F0224
:1020F000074997F907305B09012000FA02F241F81D
:10210000232000BF0C37BD465DF8047B704700BF3D
:1021100000E100E080B483B000AF03463960FB719A
:1021200097F90730002B0ADB3B68DAB20C4997F9C4
:1021300007301201D2B20B4483F800230AE03B6857
:10214000DAB20849FB7903F00F03043B1201D2B263
:102150000B441A7600BF0C37BD465DF8047B704710
:1021600000E100E000ED00E080B489B000AFF8606D
:10217000B9607A60FB6803F00703FB61FB69C3F198
:102180000703042B28BF0423BB61FB690433062B20
:1021900002D9FB69033B00E000237B614FF0FF3273
:1021A000BB6902FA03F3DA43BB681A407B699A40C1
:1021B0004FF0FF317B6901FA03F3D9437B680B4091
:1021C000134318462437BD465DF8047B7047000072
:1021D00080B582B000AF78607B68013BB3F1807F4F
:1021E00001D301230FE00A4A7B68013B53600F21B2
:1021F0004FF0FF30FFF78EFF054B00229A60044B33
:1022000007221A60002318460837BD4680BD00BF6C
:1022100010E000E080B582B000AF78607868FFF72A
:1022200029FF00BF0837BD4680BD80B586B000AF2E
:102230000346B9607A60FB7300237B61FFF73EFFC2
:1022400078617A68B9687869FFF78EFF024697F976
:102250000F3011461846FFF75DFF00BF1837BD4627
:1022600080BD80B582B000AF0346FB7197F907309F
:102270001846FFF731FF00BF0837BD4680BD80B567
:1022800082B000AF78607868FFF7A2FF0346184677
:102290000837BD4680BD000080B489B000AF7860CB
:1022A000396000237B6100233B610023BB61002375
:1022B000FB616BE10122FB6902FA03F37B613B687E
:1022C0001B687A6913403B613A697B699A4240F026
:1022D0005A813B685B6803F00303012B05D03B6820
:1022E0005B6803F00303022B30D17B689B68BB6102
:1022F000FB695B00032202FA03F3DB43BA69134074
:10230000BB613B68DA68FB695B0002FA03F3BA69F8
:102310001343BB617B68BA699A607B685B68BB6189
:102320000122FB6902FA03F3DB43BA691340BB6184
:102330003B685B681B0903F00102FB6902FA03F3C7
:10234000BA691343BB617B68BA695A603B685B68D2
:1023500003F00303032B17D07B68DB68BB61FB69C9
:102360005B00032202FA03F3DB43BA691340BB614B
:102370003B689A68FB695B0002FA03F3BA6913438E
:10238000BB617B68BA69DA603B685B6803F0030392
:10239000022B23D1FB69DA087B68083253F822301C
:1023A000BB61FB6903F007039B000F2202FA03F3F2
:1023B000DB43BA691340BB613B681A69FB6903F0F0
:1023C00007039B0002FA03F3BA691343BB61FB697D
:1023D000DA087B680832B96943F822107B681B6809
:1023E000BB61FB695B00032202FA03F3DB43BA69BA
:1023F0001340BB613B685B6803F00302FB695B0051
:1024000002FA03F3BA691343BB617B68BA691A60C5
:102410003B685B6803F44033002B00F0B48000237A
:10242000FB60604B5B6C5F4A43F4804353645D4BDD
:102430005B6C03F48043FB60FB685B4AFB699B08B1
:10244000023352F82330BB61FB6903F003039B00A6
:102450000F2202FA03F3DB43BA691340BB617B68C6
:10246000524A93422BD07B68514A934225D07B68D5
:10247000504A93421FD07B684F4A934219D07B68E1
:102480004E4A934213D07B684D4A93420DD07B68ED
:102490004C4A934207D07B684B4A934201D10723B1
:1024A0000EE008230CE006230AE0052308E00423DD
:1024B00006E0032304E0022302E0012300E00023FE
:1024C000FA6902F0030292009340BA691343BB61B8
:1024D0003549FB699B080233BA6941F823203B4B1D
:1024E0009B68BB613B69DB43BA691340BB613B68D6
:1024F0005B6803F48013002B03D0BA693B69134374
:10250000BB61324ABB699360304BDB68BB613B699E
:10251000DB43BA691340BB613B685B6803F400139B
:10252000002B03D0BA693B691343BB61274ABB69DF
:10253000D360264B5B68BB613B69DB43BA691340E0
:10254000BB613B685B6803F40033002B03D0BA69BE
:102550003B691343BB611D4ABB6953601B4B1B683E
:10256000BB613B69DB43BA691340BB613B685B6895
:1025700003F48033002B03D0BA693B691343BB617A
:10258000124ABB691360FB690133FB61FB690F2BC6
:102590007FF690AE00BF00BF2437BD465DF8047BD8
:1025A000704700BF00380240003801400000024080
:1025B0000004024000080240000C024000100240EB
:1025C0000014024000180240001C0240003C014080
:1025D00080B483B000AF78600B467B8013467B707D
:1025E0007B78002B03D07A887B689A6103E07B8834
:1025F0001A047B689A6100BF0C37BD465DF8047B06
:102600007047000080B586B000AF78607B68002B13
:1026100001D1012367E27B681B6803F00103002BF3
:1026200075D0884B9B6803F00C03042B0CD0854BB2
:102630009B6803F00C03082B12D1824B5B6803F4F8
:102640008003B3F5800F0BD17E4B1B6803F400337E
:10265000002B5BD07B685B68002B57D1012342E2E3
:102660007B685B68B3F5803F06D1764B1B68754A83
:1026700043F4803313601DE07B685B68B3F5A02FE3
:102680000CD1704B1B686F4A43F4802313606D4B71
:102690001B686C4A43F4803313600BE0694B1B6882
:1026A000684A23F480331360664B1B68654A23F441
:1026B000802313607B685B68002B13D0FEF776FEE7
:1026C000386108E0FEF772FE02463B69D31A642BBC
:1026D00001D9032307E25B4B1B6803F40033002B93
:1026E000F0D014E0FEF762FE386108E0FEF75EFE0F
:1026F00002463B69D31A642B01D90323F3E1514B02
:102700001B6803F40033002BF0D100E000BF7B68AE
:102710001B6803F00203002B63D04A4B9B6803F055
:102720000C03002B0BD0474B9B6803F00C03082BCA
:102730001CD1444B5B6803F48003002B16D1414B42
:102740001B6803F00203002B05D07B68DB68012BBC
:1027500001D00123C7E13B4B1B6823F0F8027B68E3
:102760001B69DB00374913430B603AE07B68DB6889
:10277000002B20D0344B01221A60FEF717FE38617F
:1027800008E0FEF713FE02463B69D31A022B01D97B
:102790000323A8E12B4B1B6803F00203002BF0D0AE
:1027A000284B1B6823F0F8027B681B69DB00254976
:1027B00013430B6015E0244B00221A60FEF7F6FD70
:1027C000386108E0FEF7F2FD02463B69D31A022B9E
:1027D00001D9032387E11B4B1B6803F00203002B85
:1027E000F0D17B681B6803F00803002B36D07B68B0
:1027F0005B69002B16D0154B01221A60FEF7D6FD3F
:10280000386108E0FEF7D2FD02463B69D31A022B7D
:1028100001D9032367E10B4B5B6F03F00203002B2D
:10282000F0D01BE0094B00221A60FEF7BFFD3861B3
:102830000EE0FEF7BBFD02463B69D31A022B07D917
:10284000032350E10038024000004742800E474217
:10285000884B5B6F03F00203002BEAD17B681B6897
:1028600003F00403002B00F097800023FB75814BDD
:102870001B6C03F08053002B0FD10023BB607D4BFA
:102880001B6C7C4A43F0805313647A4B1B6C03F03F
:102890008053BB60BB680123FB75774B1B6803F457
:1028A0008073002B18D1744B1B68734A43F48073F8
:1028B0001360FEF77BFD386108E0FEF777FD024606
:1028C0003B69D31A022B01D903230CE16A4B1B6825
:1028D00003F48073002BF0D07B689B68012B06D13A
:1028E000644B1B6F634A43F0010313671CE07B6872
:1028F0009B68052B0CD15F4B1B6F5E4A43F00403B2
:1029000013675C4B1B6F5B4A43F0010313670BE0DB
:10291000584B1B6F574A23F001031367554B1B6F2E
:10292000544A23F0040313677B689B68002B15D07F
:10293000FEF73CFD38610AE0FEF738FD02463B69D0
:10294000D31A41F28832934201D90323CBE0494B99
:102950001B6F03F00203002BEED014E0FEF726FD00
:1029600038610AE0FEF722FD02463B69D31A41F2C4
:102970008832934201D90323B5E03E4B1B6F03F02D
:102980000203002BEED1FB7D012B05D1394B1B6CD3
:10299000384A23F0805313647B689B69002B00F056
:1029A000A180344B9B6803F00C03082B5CD07B6840
:1029B0009B69022B41D1314B00221A60FEF7F6FCD5
:1029C000386108E0FEF7F2FC02463B69D31A022B9D
:1029D00001D9032387E0274B1B6803F00073002B0A
:1029E000F0D17B68DA697B681B6A1A437B685B6A93
:1029F0009B011A437B689B6A5B08013B1B041A43DB
:102A00007B68DB6A1B061B4913434B601B4B01228F
:102A10001A60FEF7CBFC386108E0FEF7C7FC0246FF
:102A20003B69D31A022B01D903235CE0114B1B68CD
:102A300003F00073002BF0D054E0104B00221A601A
:102A4000FEF7B4FC386108E0FEF7B0FC02463B69D3
:102A5000D31A022B01D9032345E0064B1B6803F070
:102A60000073002BF0D13DE07B689B69012B07D1FF
:102A7000012338E000380240007000406000474207
:102A80001B4B5B68FB607B689B69012B28D0FB6854
:102A900003F480027B68DB699A4221D1FB6803F072
:102AA0003F027B681B6A9A421AD1FA6847F6C073E4
:102AB00013407A68526A9201934211D1FB6803F481
:102AC00040327B689B6A5B08013B1B049A4207D13A
:102AD000FB6803F070627B68DB6A1B069A4201D0D8
:102AE000012300E0002318461837BD4680BD00BF13
:102AF0000038024080B584B000AF786039607B68F0
:102B0000002B01D10123CCE0684B1B6803F00703C5
:102B10003A689A420CD9654B3A68D2B21A70634B44
:102B20001B6803F007033A689A4201D00123B8E01A
:102B30007B681B6803F00203002B20D07B681B68B6
:102B400003F00403002B05D0594B9B68584A43F40B
:102B5000E05393607B681B6803F00803002B05D0EB
:102B6000534B9B68524A43F460439360504B9B68BD
:102B700023F0F0027B689B684D4913438B607B68B0
:102B80001B6803F00103002B44D07B685B68012BBA
:102B900007D1474B1B6803F40033002B19D10123E5
:102BA0007FE07B685B68022B03D07B685B68032B4C
:102BB00007D13F4B1B6803F00073002B09D10123A1
:102BC0006FE03B4B1B6803F00203002B01D1012394
:102BD00067E0374B9B6823F003027B685B683449EE
:102BE00013438B60FEF7E2FBF8600AE0FEF7DEFBC2
:102BF0000246FB68D31A41F28832934201D903237B
:102C00004FE02B4B9B6803F00C027B685B689B00DA
:102C10009A42EBD1254B1B6803F007033A689A42AE
:102C20000CD2224B3A68D2B21A70204B1B6803F0C8
:102C300007033A689A4201D0012332E07B681B689F
:102C400003F00403002B08D0194B9B6823F4E052D7
:102C50007B68DB68164913438B607B681B6803F055
:102C60000803002B09D0124B9B6823F460427B6859
:102C70001B69DB000E4913438B6000F021F802460C
:102C80000B4B9B681B0903F00F030A49CB5C22FA2C
:102C900003F3094A1360094B1B681846FEF742FB11
:102CA000002318461037BD4680BD00BF003C0240DF
:102CB00000380240CC4F0008000000200400002033
:102CC0002DE9B04F94B000AF00237B640023FB6478
:102CD00000233B640023BB64794B9B6803F00C0327
:102CE000082B0DD0082B00F2E180002B02D0042B22
:102CF00003D0DBE0734BBB64DBE0734BBB64D8E019
:102D00006F4B5B6803F03F037B646D4B5B6803F4C0
:102D10008003002B63D06A4B5B689B090022BB6376
:102D2000FA63BB6BC3F308033B6300237B63D7E900
:102D30000C4522462B464FF000004FF00001590190
:102D400041EAD261500102460B462146511A3961CF
:102D5000294663EB01037B614FF000024FF0000353
:102D6000D7E904AB59468B01514643EA916351467A
:102D70008A015146B2EB0108594663EB01094FF055
:102D800000024FF000034FEAC90343EA58734FEAC9
:102D9000C80290469946234618EB0303BB602B46B6
:102DA00049EB0303FB604FF000024FF00003D7E94B
:102DB000024529464B02214643EAD15321464A02A5
:102DC000104619467B6C0022BB62FA62D7E90A23DF
:102DD000FDF74EFA02460B461346FB6458E0384BAB
:102DE0005B689B09002218461146C0F308033B624A
:102DF00000237B62D7E9088942464B464FF000002A
:102E00004FF00001590141EAD261500102460B46E0
:102E10004146B2EB010A494663EB010B4FF0000259
:102E20004FF000034FEA8B1343EA9A634FEA8A128A
:102E3000B2EB0A0463EB0B054FF000024FF0000306
:102E4000EB0043EA5473E20014461D464346E31880
:102E50003B604B4645EB03037B604FF000024FF0B5
:102E60000003D7E9004529468B02214643EA9153E6
:102E700021468A02104619467B6C0022BB61FA612A
:102E8000D7E90623FDF7F4F902460B461346FB6427
:102E90000B4B5B681B0C03F0030301335B003B64CB
:102EA000FA6C3B6CB2FBF3F3BB6402E0054BBB6412
:102EB00000BFBB6C18465037BD46BDE8B08F00BFA1
:102EC000003802400024F40000127A0080B400AF01
:102ED000034B1B681846BD465DF8047B704700BF76
:102EE0000000002080B500AFFFF7F0FF0246054B61
:102EF0009B689B0A03F007030349CB5C22FA03F3A8
:102F0000184680BD00380240DC4F000880B500AF95
:102F1000FFF7DCFF0246054B9B685B0B03F00703E2
:102F20000349CB5C22FA03F3184680BD0038024007
:102F3000DC4F000880B582B000AF78607B68002B62
:102F400001D1012341E07B6893F83D30DBB2002BD7
:102F500006D17B68002283F83C207868FEF702F8EF
:102F60007B68022283F83D207B681A687B68043303
:102F70001946104600F096FA7B68012283F8462035
:102F80007B68012283F83E207B68012283F83F2082
:102F90007B68012283F840207B68012283F841206E
:102FA0007B68012283F842207B68012283F843205A
:102FB0007B68012283F844207B68012283F8452046
:102FC0007B68012283F83D20002318460837BD4660
:102FD00080BD000080B485B000AF78607B6893F856
:102FE0003D30DBB2012B01D001234EE07B68022291
:102FF00083F83D207B681B68DA687B681B6842F0B9
:103000000102DA607B681B68234A934222D07B6806
:103010001B68B3F1804F1DD07B681B681F4A934229
:1030200018D07B681B681E4A934213D07B681B68CC
:103030001C4A93420ED07B681B681B4A934209D0FE
:103040007B681B68194A934204D07B681B68184A46
:10305000934211D17B681B689B6803F00703FB60F8
:10306000FB68062B10D07B681B681A687B681B689E
:1030700042F001021A6007E07B681B681A687B68EF
:103080001B6842F001021A60002318461437BD463F
:103090005DF8047B704700BF000001400004004061
:1030A00000080040000C00400004014000400140C6
:1030B0000018004080B582B000AF78607B681B6864
:1030C0001B6903F00203022B22D17B681B68DB68BB
:1030D00003F00203022B1BD17B681B686FF0020216
:1030E0001A617B6801221A777B681B689B6903F071
:1030F0000303002B03D0786800F0B5F905E0786889
:1031000000F0A7F9786800F0B8F97B6800221A7718
:103110007B681B681B6903F00403042B22D17B68C6
:103120001B68DB6803F00403042B1BD17B681B685E
:103130006FF004021A617B6802221A777B681B68B1
:103140009B6903F44073002B03D0786800F08BF97F
:1031500005E0786800F07DF9786800F08EF97B680A
:1031600000221A777B681B681B6903F00803082B91
:1031700022D17B681B68DB6803F00803082B1BD196
:103180007B681B686FF008021A617B6804221A775B
:103190007B681B68DB6903F00303002B03D07868AE
:1031A00000F061F905E0786800F053F9786800F004
:1031B00064F97B6800221A777B681B681B6903F03F
:1031C0001003102B22D17B681B68DB6803F010030F
:1031D000102B1BD17B681B686FF010021A617B6893
:1031E00008221A777B681B68DB6903F44073002BA5
:1031F00003D0786800F037F905E0786800F029F925
:10320000786800F03AF97B6800221A777B681B68BF
:103210001B6903F00103012B0ED17B681B68DB687F
:1032200003F00103012B07D17B681B686FF00102DB
:103230001A617868FDF72AFA7B681B681B6903F03E
:103240008003802B0ED17B681B68DB6803F0800352
:10325000802B07D17B681B686FF080021A61786849
:1032600000F0E0FA7B681B681B6903F04003402B09
:103270000ED17B681B68DB6803F04003402B07D14D
:103280007B681B686FF040021A61786800F0FFF8F5
:103290007B681B681B6903F02003202B0ED17B6821
:1032A0001B68DB6803F02003202B07D17B681B68B9
:1032B0006FF020021A61786800F0AAFA00BF0837A0
:1032C000BD4680BD80B584B000AF78603960002312
:1032D000FB737B6893F83C30012B01D10223B4E0EF
:1032E0007B68012283F83C207B68022283F83D2022
:1032F0007B681B689B68BB60BB6823F07703BB607F
:10330000BB6823F47F43BB607B681B68BA689A6024
:103310003B681B68B3F5005F3ED0B3F5005F00F279
:103320008780B3F5805F00F08680B3F5805F7FD83B
:10333000702B1AD0702B7BD8602B50D0602B77D895
:10334000502B3CD0502B73D8402B58D0402B6FD8EB
:10335000302B64D0302B6BD8202B60D0202B67D83B
:10336000002B5CD0102B5AD062E07B6818683B6859
:1033700099683B685A683B68DB6800F0ADF97B6888
:103380001B689B68BB60BB6843F07703BB607B68CE
:103390001B68BA689A604FE07B6818683B68996858
:1033A0003B685A683B68DB6800F096F97B681B68ED
:1033B0009A687B681B6842F480429A603CE07B68B4
:1033C00018683B6859683B68DB681A4600F00AF9E0
:1033D0007B681B685021184600F063F92CE07B687D
:1033E00018683B6859683B68DB681A4600F029F9A1
:1033F0007B681B686021184600F053F91CE07B686D
:1034000018683B6859683B68DB681A4600F0EAF8C0
:103410007B681B684021184600F043F90CE07B688C
:103420001A683B681B681946104600F03AF903E039
:103430000123FB7300E000BF7B68012283F83D207D
:103440007B68002283F83C20FB7B18461037BD4682
:1034500080BD80B483B000AF786000BF0C37BD463C
:103460005DF8047B704780B483B000AF786000BF24
:103470000C37BD465DF8047B704780B483B000AF65
:10348000786000BF0C37BD465DF8047B704780B4A0
:1034900083B000AF786000BF0C37BD465DF8047B99
:1034A0007047000080B485B000AF786039607B68F9
:1034B0001B68FB607B68404A934213D07B68B3F182
:1034C000804F0FD07B683D4A93420BD07B683C4ACB
:1034D000934207D07B683B4A934203D07B683A4AC9
:1034E000934208D1FB6823F07003FB603B685B6884
:1034F000FA681343FB607B682F4A93422BD07B68AA
:10350000B3F1804F27D07B682C4A934223D07B684D
:103510002B4A93421FD07B682A4A93421BD07B6878
:10352000294A934217D07B68284A934213D07B687C
:10353000274A93420FD07B68264A93420BD07B6880
:10354000254A934207D07B68244A934203D07B6884
:10355000234A934208D1FB6823F44073FB603B6825
:10356000DB68FA681343FB60FB6823F080023B686A
:103570005B691343FB607B68FA681A603B689A6872
:103580007B68DA623B681A687B689A627B680A4AE1
:10359000934203D07B680C4A934203D13B681A697B
:1035A0007B681A637B6801225A6100BF1437BD46ED
:1035B0005DF8047B704700BF00000140000400403C
:1035C00000080040000C00400004014000400140A1
:1035D000004401400048014000180040001C004029
:1035E0000020004080B487B000AFF860B9607A6016
:1035F000FB681B6A7B61FB681B6A23F00102FB68A6
:103600001A62FB689B693B613B6923F0F0033B61F5
:103610007B681B013A6913433B617B6923F00A0312
:103620007B617A69BB6813437B61FB683A699A6185
:10363000FB687A691A6200BF1C37BD465DF8047BDF
:10364000704780B487B000AFF860B9607A60FB68FB
:103650001B6A23F01002FB681A62FB689B697B619E
:10366000FB681B6A3B617B6923F470437B617B6869
:103670001B037A6913437B613B6923F0A0033B6121
:10368000BB681B013A6913433B61FB687A699A6125
:10369000FB683A691A6200BF1C37BD465DF8047BBF
:1036A000704780B485B000AF786039607B689B68F4
:1036B000FB60FB6823F07003FB603A68FB68134310
:1036C00043F00703FB607B68FA689A6000BF143719
:1036D000BD465DF8047B704780B487B000AFF860EA
:1036E000B9607A603B60FB689B687B617B6923F40F
:1036F0007F437B613B681A027B681A43BB681343B4
:103700007A6913437B61FB687A699A6000BF1C3752
:10371000BD465DF8047B704780B485B000AF78602B
:1037200039607B6893F83C30012B01D102235AE0C9
:103730007B68012283F83C207B68022283F83D20CD
:103740007B681B685B68FB607B681B689B68BB6071
:10375000FB6823F07003FB603B681B68FA68134347
:10376000FB607B681B68FA685A607B681B68214AAB
:10377000934222D07B681B68B3F1804F1DD07B68D9
:103780001B681D4A934218D07B681B681B4A9342F2
:1037900013D07B681B681A4A93420ED07B681B6863
:1037A000184A934209D07B681B68174A934204D099
:1037B0007B681B68154A93420CD1BB6823F08003D9
:1037C000BB603B685B68BA681343BB607B681B687F
:1037D000BA689A607B68012283F83D207B680022EA
:1037E00083F83C20002318461437BD465DF8047B5F
:1037F000704700BF00000140000400400008004086
:10380000000C00400004014000400140001800404E
:1038100080B483B000AF786000BF0C37BD465DF860
:10382000047B704780B483B000AF786000BF0C3772
:10383000BD465DF8047B704780B582B000AF78600C
:103840007B68002B01D101233FE07B6893F83D307A
:10385000DBB2002B06D17B68002283F83C2078681D
:10386000FDF7C4FB7B68242283F83D207B681B683E
:10387000DA687B681B6822F40052DA60786800F02E
:1038800029F97B681B681A697B681B6822F49042DF
:103890001A617B681B685A697B681B6822F02A02E0
:1038A0005A617B681B68DA687B681B6842F40052C7
:1038B000DA607B6800221A647B68202283F83D204E
:1038C0007B68202283F83E20002318460837BD4637
:1038D00080BD80B58AB002AFF860B9603B60134626
:1038E000FB8000237B61FB6893F83D30DBB2202B2B
:1038F0007CD1BB68002B02D0FB88002B01D10123B7
:1039000075E0FB6893F83C30012B01D102236EE097
:10391000FB68012283F83C20FB6800221A64FB68E4
:10392000212283F83D20FDF741FD7861FB68FA888C
:103930009A84FB68FA88DA84FB689B68B3F5805F39
:1039400008D1FB681B69002B04D10023FB61BB6815
:10395000BB6103E0BB68FB610023BB61FB68002225
:1039600083F83C202AE03B6800937B690022802199
:10397000F86800F040F80346002B01D0032336E03E
:10398000FB69002B0BD1BB691B881A46FB681B68BF
:10399000C2F308025A60BB690233BB6107E0FB69EE
:1039A0001A78FB681B685A60FB690133FB61FB688E
:1039B000DB8C9BB2013B9AB2FB68DA84FB68DB8C40
:1039C0009BB2002BCFD13B6800937B690022402142
:1039D000F86800F010F80346002B01D0032306E03E
:1039E000FB68202283F83D20002300E002231846D4
:1039F0002037BD4680BD80B590B000AFF860B9609B
:103A00003B601346FB7150E0BB6CB3F1FF3F4CD001
:103A1000BB6C002B07D0FDF7C9FC02463B68D31AEC
:103A2000BA6C9A4241D2FB681B680C33BB62BB6A1A
:103A300053E8003F7B627B6A23F4D073FB63FB682F
:103A40001B680C33FA6B7A633B63396B7A6B41E822
:103A50000023FB62FB6A002BE5D1FB681B68143373
:103A60007B617B6953E8003F3B613B6923F00103C5
:103A7000BB63FB681B681433BA6B3A62FB61F9697C
:103A80003A6A41E80023BB61BB69002BE5D1FB68C2
:103A9000202283F83D20FB68202283F83E20FB682B
:103AA000002283F83C2003230FE0FB681B681A68A0
:103AB000BB681340BA689A420CBF01230023DBB2F3
:103AC0001A46FB799A429FD0002318464037BD46DC
:103AD00080BD00002DE9B04FC0B000AFC7F8F400C2
:103AE000D7F8F4301B681B6923F44050D7F8F43042
:103AF000D968D7F8F4301A6840EA01031361D7F89F
:103B0000F4309A68D7F8F4301B691A43D7F8F430C8
:103B10005B691A43D7F8F430DB691343C7F8F83010
:103B2000D7F8F4301B68DB6823F4164121F00C0150
:103B3000D7F8F4301A68D7F8F8300B43D360D7F8C9
:103B4000F4301B685B6923F44070D7F8F43099694E
:103B5000D7F8F4301A6840EA01035361D7F8F4301B
:103B60001A688F4B9A4205D0D7F8F4301A688D4BFB
:103B70009A4204D1FFF7CAF9C7F8FC0003E0FFF747
:103B8000B1F9C7F8FC00D7F8F430DB69B3F5004FA2
:103B900040F00C81D7F8FC300022C7F8E830C7F8B5
:103BA000EC20D7E93A4522462B469118B9655B418E
:103BB000FB65D7E91623214612EB0108294643EBA2
:103BC00001094FF000024FF000034FEAC90343EA36
:103BD00058734FEAC80290469946234618EB0303F0
:103BE000C7F8E0302B4649EB0303C7F8E430D7F8B9
:103BF000F4305B680022C7F8D830C7F8DC20D7E97A
:103C000036120B46DB183B65134642EB03037B651C
:103C1000D7E91423D7E93801FCF72AFB02460B4603
:103C2000614BA3FB02235B091C01D7F8FC30002287
:103C3000C7F8D030C7F8D420D7E9348942464B467C
:103C40009118B9645B41FB64D7E91223414612EB3A
:103C5000010A494643EB010B4FF000024FF000030D
:103C60004FEACB0343EA5A734FEACA0292469B4695
:103C700043461AEB0303C7F8C8304B464BEB03032C
:103C8000C7F8CC30D7F8F4305B680022C7F8C030F2
:103C9000C7F8C420D7E930120B46DB183B64134643
:103CA00042EB03037B64D7E91023D7E93201FCF729
:103CB000DFFA02460B4611463B4BA3FB01235B098F
:103CC000642202FB03F3CB1ADB0003F13202364B12
:103CD000A3FB02235B095B0003F4F8731C44D7F8D1
:103CE000FC300022C7F8B830C7F8BC20D7E92E89CD
:103CF00042464B469118B9635B41FB63D7E90E23FB
:103D000041465118396349464B417B634FF00002ED
:103D10004FF00003D7E90CAB5946CB00514643EABC
:103D200051735146CA0010461946034642469B1835
:103D3000C7F8B0304B460A4642EB0303C7F8B4302D
:103D4000D7F8F4305B680022C7F8A830C7F8AC2079
:103D5000D7E92A120B46DB18BB62134642EB03037A
:103D6000FB62D7E90A23D7E92C01FCF781FA024666
:103D70000B460D4BA3FB02135B09642101FB03F30C
:103D8000D31ADB003233084AA2FB03235B0903F09A
:103D90000702D7F8F4301B6822449A6005E100BF9F
:103DA00000100140001401401F85EB51D7F8FC3092
:103DB0000022C7F8A030C7F8A420D7E928894246D6
:103DC0004B46911839625B417B62D7E90823414633
:103DD0005418494643EB01054FF000024FF0000331
:103DE000EB0043EA5473E20014461D464346E318D1
:103DF000C7F898304B4645EB0303C7F89C30D7F81B
:103E0000F4305B680022C7F89030C7F894204FF078
:103E100000024FF00003D7E9244529468B002146D4
:103E200043EA917321468A00D7E92601FCF720FA7C
:103E300002460B46604BA3FB02235B091C01D7F82B
:103E4000FC300022C7F88830C7F88C20D7E92289D7
:103E500042464B469118B9615B41FB61D7E90623A5
:103E600041465118396149464B417B614FF0000290
:103E70004FF00003D7E904AB5946CB00514643EA63
:103E800051735146CA0010461946034642469B18D4
:103E9000C7F880304B460A4642EB0303C7F884302C
:103EA000D7F8F4305B680022BB67FA674FF0000276
:103EB0004FF00003D7E91E8949468B00414643EA8B
:103EC000917341468A00D7E92001FCF7D1F90246F7
:103ED0000B46394BA3FB02135B09642101FB03F37F
:103EE000D31A1B013233344AA2FB03235B0903F0CC
:103EF000F0031C44D7F8FC3000223B677A67D7E90F
:103F00001C8942464B469118B9605B41FB60D7E97A
:103F1000022341465118396049464B417B604FF0BE
:103F200000024FF00003D7E900AB5946CB005146E1
:103F300043EA51735146CA001046194603464246A9
:103F40009B18BB664B460A4642EB0303FB66D7F859
:103F5000F4305B6800223B667A664FF000024FF057
:103F60000003D7E9188949468B00414643EA91731B
:103F700041468A00D7E91A01FCF77AF902460B4656
:103F80000D4BA3FB02135B09642101FB03F3D31A5E
:103F90001B013233084AA2FB03235B0903F00F0223
:103FA000D7F8F4301B6822449A6000BF07F5807789
:103FB000BD46BDE8B08F00BF1F85EB51014B1868AF
:103FC000704700BF0C00002070B50D4D0D4C641BF8
:103FD000A4100026A64209D10B4D0C4C00F0AEFFF8
:103FE000641BA4100026A64205D170BD55F8043B01
:103FF00098470136EEE755F8043B98470136F2E75B
:10400000845000088450000884500008885000083C
:1040100002440346934200D1704703F8011BF9E7BD
:104020000FB40A4B13B51C6824B1A36913B9204619
:1040300000F066F805AB049AA1680193204600F0F1
:10404000BDF902B0BDE8104004B070470C0000207C
:10405000002310B50446C0E90033C0E9043383608F
:1040600081814366C2818361194608225C30FFF773
:10407000CFFF054B6362054BA362054BE362054B23
:104080002462236310BD00BF65490008874900080A
:10409000BF490008E3490008014900F0AFB800BF7C
:1040A000BD4C000870B568224D1E55430E4605F103
:1040B000740100F0E5F8044640B10021C0E90016A3
:1040C0000C30A06005F16802FFF7A2FF204670BD2A
:1040D000014800F0B3B800BF6D020020014800F0B5
:1040E000AEB800BF6D020020014800F0A7B800BFC5
:1040F0006E020020014800F0A2B800BF6E0200204E
:1041000010B50446FFF7F0FFA3691BB1BDE81040EE
:10411000FFF7F0BFC4E912332365134B134A1B6842
:10412000A262A34204BF0123A361204600F020F84D
:104130006060204600F01CF8A060204600F018F8EF
:104140000022E06004216068FFF782FFA06801227E
:104150000921FFF77DFFE06802221221FFF778FFB7
:104160000123A361D2E700BFE44F00089940000893
:10417000F8B50746FFF7ACFF1E4B1E68B36913B9CD
:104180003046FFF7BDFF4836D6E90134013B03D581
:1041900033680BB33668F7E7B4F90C50D5B9164B52
:1041A000E36004F15800656600F047F8FFF796FFFA
:1041B000C4E90155C4E904552560A56108222946D2
:1041C00004F15C00FFF724FFC4E90D55C4E9125562
:1041D0002046F8BD6834D9E704213846FFF762FF6E
:1041E000044630600028D5D1FFF778FF0C233B60F0
:1041F000EEE700BFE44F00080100FFFF2DE9F843A0
:104200000646884600F148040027D4E90195B9F133
:10421000010905D52468002CF7D13846BDE8F8839C
:10422000AB89012B07D9B5F90E30013303D02946EC
:104230003046C04707436835E9E770477047704725
:1042400070B50E4E0C463168054611B900F07AFB88
:1042500030602146284600F075FB431C0AD0C41C80
:1042600024F00304A04207D0211A284600F06AFB7C
:10427000013001D14FF0FF34204670BD74020020A0
:104280002DE9F041CD1C25F0030508350C2D38BF74
:104290000C25002D074601DBA94205D90C233B6004
:1042A00000263046BDE8F0812E4E00F0BBFD33689D
:1042B0001C4634BB29463846FFF7C2FF431C044660
:1042C0004DD134682646002E40D123683146384609
:1042D00004EB030800F036FB80453AD12168033532
:1042E0006D1A25F0030508350C2D38BF0C2529461D
:1042F0003846FFF7A5FF01302BD023682B442360FD
:104300000EE02268521B1ED40B2A16D96119A34253
:10431000256018BF5960636808BF316062514B6007
:10432000384604F10B0600F083FD26F00706231D36
:10433000F21AB6D09B1BA350B3E76268A3420CBF2E
:1043400032605A60ECE723466468B2E73446766828
:10435000B9E70C233B60384600F06AFDA1E7256011
:10436000DEE700BF700200209368013B002B10B411
:10437000936008DA9469A34201DB0A2903D15DF84E
:10438000044B00F033BB1368581C106019700846CA
:104390005DF8044B7047F8B506460F461446D5182D
:1043A000AC4201D1002007E014F8011B3A46304628
:1043B000FFF7DAFF431CF3D1F8BD00002DE9F04F01
:1043C0000D469DB014469846064618B183690BB950
:1043D000FFF796FE894B9D421BD175686B6ED9071E
:1043E00005D4AB899A0502D4A86DFFF727FFAB89E6
:1043F0001B0701D52B69EBB92946304600F05AFB63
:10440000C0B16B6EDC070ED54FF0FF301DB0BDE8BC
:10441000F08F7B4B9D4201D1B568DFE7794B9D4220
:1044200008BFF568DAE7AB899805EDD4A86DFFF70A
:1044300006FFE9E70023099320238DF82930CDF802
:104440000C803023DFF8C0818DF82A304FF001094D
:1044500023469A4613F8012B0AB1252AF9D1BAEB63
:10446000040B0BD05B46224629463046FFF793FFEC
:10447000013000F0AA80099A5A4409929AF8003053
:10448000002B00F0A28000234FF0FF32CDE905237E
:104490000AF1010A049307938DF853301A93544696
:1044A000052214F8011B5848FBF792FE049AD8B96C
:1044B000D10644BF20238DF85330130744BF2B236C
:1044C0008DF853309AF800302A2B15D0079A5446AD
:1044D00000204FF00A0C214611F8013B303B092B1C
:1044E0004ED9B0B1079214E0A0EB080309FA03F328
:1044F00013430493A246D2E7039B191D1B68039143
:10450000002BBBBF5B4242F0020207930793B8BF88
:10451000049223782E2B0CD163782A2B35D1039B60
:104520001A1D1B680392002BB8BF4FF0FF330234F3
:104530000593DFF8E4A0217803225046FBF748FEFC
:1045400040B14023A0EB0A0003FA00F0049B0343B0
:104550000134049314F8011B2C488DF8281006220E
:10456000FBF736FE00283FD0294B1BBB039B0733CC
:1045700023F0070308330393099B3B44099367E740
:104580000CFB02320C460120A5E700230134059301
:1045900019464FF00A0C204610F8012B303A092A30
:1045A00003D9002BC5D00591C3E70CFB01210446BC
:1045B0000123F0E703AB00932A46164B04A93046CB
:1045C000AFF300800746781CD6D16B6ED90705D4AF
:1045D000AB899A0502D4A86DFFF731FEAB895B0663
:1045E0003FF512AF099811E703AB00932A46094B38
:1045F00004A9304600F080F8E4E700BF0850000846
:1046000028500008E84F00084850000852500008A1
:1046100000000000974300084E5000082DE9F047C5
:10462000164699468A680B69DDF820809342B8BF28
:104630001346336091F8432007460C460AB1013314
:1046400033602368990642BF3368023333602568BC
:1046500015F0060506D104F1190AE36832689B1AC1
:10466000AB4226DC94F84320131E226818BF0123B6
:1046700092062BD404F1430249463846C047013024
:104680001ED02368E568326803F00603042B08BFD8
:10469000AD1AA36822690CBF25EAE575002593428F
:1046A000C4BF9B1AED1800261A34B5421AD1002057
:1046B00008E00123524649463846C047013003D13D
:1046C0004FF0FF30BDE8F0870135C6E7E1185A1C0E
:1046D000302081F84300224494F8451082F84310BA
:1046E0000233C7E70123224649463846C047013016
:1046F000E6D00136D9E700002DE9FF470F7E0C9D7B
:10470000782F914680460C469A4601F1430207D81D
:10471000622F0AD8002F00F0D880582F00F0A38015
:1047200004F1420584F842703AE0A7F16303152BC7
:10473000F6D801A151F823F091470008A5470008D9
:1047400021470008214700082147000821470008A9
:10475000A547000821470008214700082147000815
:1047600021470008B1480008D547000893480008D1
:104770002147000821470008D348000821470008C6
:10478000D547000821470008214700089B4800083A
:104790002B681A1D1B682A6004F1420584F8423018
:1047A0000123A3E020682968060601F104030AD565
:1047B0000E682B60002E03DA2D23764284F84330F6
:1047C0005E480A2319E00E682B6010F0400F18BFF6
:1047D00036B2EFE72B682068191D2960010601D564
:1047E0001E6802E04606FBD51E8854486F2F0CBF9A
:1047F00008230A23002184F843106568A560002D72
:10480000A2BF216821F0040121600EB9002D4DD016
:104810001546B6FBF3F103FB1167C75D05F8017D93
:104820003746BB420E46F4D9082B0BD12368DE076E
:1048300008D5236961689942DEBF302305F8013C41
:1048400005F1FF35521B2261CDF800A04B4603AAAB
:1048500021464046FFF7E2FE01304CD14FF0FF30D9
:1048600004B0BDE8F087354881F8457029682368B1
:1048700051F8046B29601D0614D5DF0744BF43F0CF
:10488000200323601EB9236823F020032360102334
:10489000B0E7236843F0200323607823284884F896
:1048A0004530E3E7590648BFB6B2E6E71546BBE731
:1048B0002B6826686169181D286035061B6801D5BC
:1048C000196002E07006FBD51980002323611546AC
:1048D000BAE72B681A1D2A601D6862680021284605
:1048E000FBF776FC08B1401B60606368236100231E
:1048F00084F84330A8E723692A4649464046D04712
:104900000130ABD023689B0713D4E068039B984227
:10491000B8BF1846A4E70123324649464046D0476F
:1049200001309BD00135E36803995B1AAB42F2DC9E
:10493000EBE7002504F11906F5E700BF5950000820
:104940006A50000838B5064D0023044608462B601F
:10495000FCF754FC431C02D12B6803B1236038BD23
:104960007802002010B50C46B1F90E1000F0B2FA32
:104970000028ABBF636DA3891B1823F48053ACBF21
:104980006365A38110BD2DE9F0411F468B89DB05CE
:1049900005460C46164605D5B1F90E100223002235
:1049A00000F0C8F9A389B4F90E1023F48053A38151
:1049B00032463B462846BDE8F04100F069B810B5E4
:1049C0000C46B1F90E1000F0B5F9431CA38915BFD0
:1049D000606523F4805343F48053A38118BFA381FF
:1049E00010BDB1F90E1000F0D3B80000F8B50E46B6
:1049F0001446054618B183690BB9FFF781FB214BBB
:104A00009C422BD16C68A369A360A3891A072FD598
:104A100023696BB323692068C01A6369F6B28342C5
:104A2000374604DC2146284600F048F930BBA3682D
:104A3000013BA36023685A1C22601E706369013029
:104A4000834204D0A389DB0706D50A2E04D1214670
:104A5000284600F033F988B93846F8BD0A4B9C4225
:104A600001D1AC68CFE7094B9C4208BFEC68CAE7AC
:104A70002146284600F01EF80028CBD04FF0FF3723
:104A8000EAE700BF0850000828500008E84F000877
:104A900038B5074D04460846114600222A601A46DA
:104AA000FCF75BFB431C02D12B6803B1236038BDCC
:104AB00078020020324B70B51D6806460C4625B1C1
:104AC000AB6913B92846FFF71BFB2E4B9C420FD155
:104AD0006C68A389B4F90C2019072CD4DD0611D415
:104AE0000923336042F04003A3814FF0FF303EE0E2
:104AF000254B9C4201D1AC68EBE7244B9C4208BF9C
:104B0000EC68E6E7580712D5616B41B104F1440344
:104B1000994202D0304600F091F900236363A389E3
:104B200023F02403A3810023636023692360A38906
:104B300043F00803A38123694BB9A38903F42073CD
:104B4000B3F5007F03D02146304600F02BF9A08951
:104B5000B4F90C2010F001030AD00023A3606369AC
:104B60005B42A361236943B910F08000BAD170BDE4
:104B7000810758BF6369A360F4E70020F7E700BF2F
:104B80000C0000200850000828500008E84F0008DA
:104B900038B5064D0023044608462B60FCF7F9FAA9
:104BA000431C02D12B6803B1236038BD780200207A
:104BB0008A892DE9F041054610070C4658D44B6808
:104BC000002B05DC0B6C002B02DC0020BDE8F08123
:104BD000E66A002EF9D0002312F480522F682B6071
:104BE00032D0606DA3895A0705D56368C01A636B1C
:104BF0000BB1236CC01A00230246E66A216A2846DC
:104C0000B047431CA38906D129681D292CD82A4AFC
:104C1000CA40D60728D500226260D90422692260E2
:104C200004D5421C01D12B6803B96065616B2F600C
:104C30000029CAD004F14403994202D0284600F06A
:104C4000FDF800206063C1E7216A01232846B047D0
:104C5000411CC7D12B68002BC4D01D2B01D0162BB3
:104C600001D12F60B1E7A38943F04003A381ADE7F1
:104C70000F69002FA9D093070E6808BF4B690F601A
:104C800018BF0023A6EB07088B60B8F1000F9CDD6E
:104C9000216AA66A43463A462846B047002806DC01
:104CA000A38943F04003A3814FF0FF308EE7074410
:104CB000A8EB0008E9E700BF0100402038B50B6908
:104CC00005460C4613B90025284638BD18B183693E
:104CD0000BB9FFF715FA144B9C421BD16C68B4F961
:104CE0000C30002BEFD0626ED00704D4990502D4AB
:104CF000A06DFFF7A3FA28462146FFF759FF636E20
:104D0000DA070546E0D4A3899B05DDD4A06DFFF743
:104D100096FAD9E7054B9C4201D1AC68DFE7044B1A
:104D20009C4208BFEC68DAE70850000828500008E9
:104D3000E84F000838B5074D0446084611460022E2
:104D40002A601A46FCF74CFA431C02D12B6803B1C7
:104D5000236038BD7802002070B50E46B1F90E1000
:104D6000002996B014461D4608DAB6F90C30002228
:104D70002A601A0610D44FF480630EE06A4600F0F1
:104D8000BBF80028F1DB019A02F47042A2F500534F
:104D90005A425A412A60EEE740230020236016B0B1
:104DA00070BD00008B8973B59D0706460C4607D57C
:104DB00004F14703236023610123636102B070BDE6
:104DC00001AB6A46FFF7C8FF009905463046FFF77A
:104DD00057FA48B9B4F90C309A05EFD423F003031D
:104DE00043F00203A381E3E70D4BB362A389206084
:104DF00043F08003A381009B6361019B20615BB151
:104E0000B4F90E10304600F089F828B1A38923F0D8
:104E1000030343F00103A381A0890543A581CDE7E6
:104E2000994000080148FFF709BA00BF6C02002052
:104E30000148FFF704BA00BF6C02002037B5002913
:104E400044D051F8043C0190002BA1F10404B8BFF8
:104E5000E418FFF7E7FF1E4A0198136833B963604F
:104E6000146003B0BDE83040FFF7E2BFA34208D9A9
:104E7000256861198B4201BF19685B684919216077
:104E8000EDE71A465B680BB1A342FAD911685518D1
:104E9000A5420BD1246821445418A3421160E0D1EB
:104EA0001C685B68536021441160DAE702D90C2367
:104EB0000360D6E7256861198B4204BF19685B68F7
:104EC000636004BF491921605460CAE703B030BD74
:104ED0007002002038B5074D0446084611460022EE
:104EE0002A601A46FCF71CF9431C02D12B6803B157
:104EF000236038BD7802002038B5074D00230446F2
:104F0000084611462B60FCF750F9431C02D12B6870
:104F100003B1236038BD00BF7802002038B5064DCC
:104F20000023044608462B60FCF74FF9431C02D1CE
:104F30002B6803B1236038BD78020020F8B500BFAC
:104F4000F8BC08BC9E467047F8B500BFF8BC08BC6A
:044F50009E467047C2
:104F54003220746F203120283530306D7329202D94
:104F6400204E6F6465312067657420646174613A12
:104F74002025782D25782D25782D25782D25782D1B
:104F840025782D25782D25780D0A00003120746FA1
:104F9400203220283230306D7329202D204E6F644A
:104FA40065322067657420646174613A2025782D28
:104FB40025782D25782D25782D25782D25782D25D6
:104FC400782D25780D0A0000000000000000000084
:104FD400010203040607080900000000010203049B
:104FE400100000200000000000000000000000008D
:104FF40000000000000000000000000000000000AD
:10500400000000000000000000000000000000009C
:10501400000000000000000000000000000000008C
:10502400000000000000000000000000000000007C
:10503400000000000000000000000000000000006C
:1050440000000000232D302B2000686C4C006566A6
:1050540067454647003031323334353637383941C5
:1050640042434445460030313233343536373839DB
:085074006162636465660000DF
:08507C0024B2FF7F01000000D7
:04508400B50100086A
:04508800910100088A
:10508C000024F400100000000100000010000020BB
:10509C00000000000850000828500008E84F0008E5
:1050AC0000000000000000000000000000000000F4
:1050BC0000000000000000000000000000000000E4
:1050CC0000000000000000000000000000000000D4
:1050DC0000000000000000000000000000000000C4
:1050EC0000000000000000000000000000000000B4
:040000050800128D50
:00000001FF
